{
  "_format": "hh-sol-artifact-1",
  "contractName": "Docusafe",
  "sourceName": "contracts/Docusafe.sol",
  "abi": [
    {
      "inputs": [],
      "stateMutability": "nonpayable",
      "type": "constructor"
    },
    {
      "anonymous": false,
      "inputs": [
        {
          "indexed": true,
          "internalType": "address",
          "name": "sender",
          "type": "address"
        },
        {
          "indexed": true,
          "internalType": "address",
          "name": "receiver",
          "type": "address"
        },
        {
          "indexed": false,
          "internalType": "uint256",
          "name": "amount",
          "type": "uint256"
        }
      ],
      "name": "OperationConfirmed",
      "type": "event"
    },
    {
      "anonymous": false,
      "inputs": [
        {
          "indexed": true,
          "internalType": "address",
          "name": "sender",
          "type": "address"
        },
        {
          "indexed": true,
          "internalType": "address",
          "name": "receiver",
          "type": "address"
        },
        {
          "indexed": false,
          "internalType": "string",
          "name": "senderName",
          "type": "string"
        },
        {
          "indexed": false,
          "internalType": "string",
          "name": "receiverName",
          "type": "string"
        },
        {
          "indexed": false,
          "internalType": "uint256",
          "name": "pickupTime",
          "type": "uint256"
        },
        {
          "indexed": false,
          "internalType": "uint256",
          "name": "ref",
          "type": "uint256"
        },
        {
          "indexed": false,
          "internalType": "uint256",
          "name": "price",
          "type": "uint256"
        },
        {
          "indexed": false,
          "internalType": "string",
          "name": "ipfsHash",
          "type": "string"
        }
      ],
      "name": "OperationCreated",
      "type": "event"
    },
    {
      "anonymous": false,
      "inputs": [
        {
          "indexed": true,
          "internalType": "address",
          "name": "sender",
          "type": "address"
        },
        {
          "indexed": true,
          "internalType": "address",
          "name": "receiver",
          "type": "address"
        },
        {
          "indexed": false,
          "internalType": "uint256",
          "name": "deliveryTime",
          "type": "uint256"
        }
      ],
      "name": "OperationDelivered",
      "type": "event"
    },
    {
      "anonymous": false,
      "inputs": [
        {
          "indexed": true,
          "internalType": "address",
          "name": "sender",
          "type": "address"
        },
        {
          "indexed": true,
          "internalType": "address",
          "name": "receiver",
          "type": "address"
        },
        {
          "indexed": false,
          "internalType": "uint256",
          "name": "pickupTime",
          "type": "uint256"
        }
      ],
      "name": "OperationInTransit",
      "type": "event"
    },
    {
      "inputs": [
        {
          "internalType": "address",
          "name": "_sender",
          "type": "address"
        },
        {
          "internalType": "address",
          "name": "_receiver",
          "type": "address"
        },
        {
          "internalType": "uint256",
          "name": "_index",
          "type": "uint256"
        }
      ],
      "name": "completeOperation",
      "outputs": [],
      "stateMutability": "nonpayable",
      "type": "function"
    },
    {
      "inputs": [
        {
          "internalType": "address",
          "name": "_receiver",
          "type": "address"
        },
        {
          "internalType": "string",
          "name": "_senderName",
          "type": "string"
        },
        {
          "internalType": "string",
          "name": "_receiverName",
          "type": "string"
        },
        {
          "internalType": "uint256",
          "name": "_pickupTime",
          "type": "uint256"
        },
        {
          "internalType": "uint256",
          "name": "_ref",
          "type": "uint256"
        },
        {
          "internalType": "uint256",
          "name": "_price",
          "type": "uint256"
        },
        {
          "internalType": "string",
          "name": "_ipfsHash",
          "type": "string"
        }
      ],
      "name": "createOperation",
      "outputs": [],
      "stateMutability": "payable",
      "type": "function"
    },
    {
      "inputs": [],
      "name": "getAllTransactions",
      "outputs": [
        {
          "components": [
            {
              "internalType": "address",
              "name": "sender",
              "type": "address"
            },
            {
              "internalType": "address",
              "name": "receiver",
              "type": "address"
            },
            {
              "internalType": "string",
              "name": "senderName",
              "type": "string"
            },
            {
              "internalType": "string",
              "name": "receiverName",
              "type": "string"
            },
            {
              "internalType": "uint256",
              "name": "pickupTime",
              "type": "uint256"
            },
            {
              "internalType": "uint256",
              "name": "deliveryTime",
              "type": "uint256"
            },
            {
              "internalType": "uint256",
              "name": "ref",
              "type": "uint256"
            },
            {
              "internalType": "uint256",
              "name": "price",
              "type": "uint256"
            },
            {
              "internalType": "enum Docusafe.OperationStatus",
              "name": "status",
              "type": "uint8"
            },
            {
              "internalType": "bool",
              "name": "isConfirmed",
              "type": "bool"
            },
            {
              "internalType": "string",
              "name": "ipfsHash",
              "type": "string"
            }
          ],
          "internalType": "struct Docusafe.TypeOperation[]",
          "name": "",
          "type": "tuple[]"
        }
      ],
      "stateMutability": "view",
      "type": "function"
    },
    {
      "inputs": [
        {
          "internalType": "address",
          "name": "_sender",
          "type": "address"
        },
        {
          "internalType": "uint256",
          "name": "_index",
          "type": "uint256"
        }
      ],
      "name": "getOperation",
      "outputs": [
        {
          "internalType": "address",
          "name": "",
          "type": "address"
        },
        {
          "internalType": "address",
          "name": "",
          "type": "address"
        },
        {
          "internalType": "string",
          "name": "",
          "type": "string"
        },
        {
          "internalType": "string",
          "name": "",
          "type": "string"
        },
        {
          "internalType": "uint256",
          "name": "",
          "type": "uint256"
        },
        {
          "internalType": "uint256",
          "name": "",
          "type": "uint256"
        },
        {
          "internalType": "uint256",
          "name": "",
          "type": "uint256"
        },
        {
          "internalType": "uint256",
          "name": "",
          "type": "uint256"
        },
        {
          "internalType": "enum Docusafe.OperationStatus",
          "name": "",
          "type": "uint8"
        },
        {
          "internalType": "bool",
          "name": "",
          "type": "bool"
        },
        {
          "internalType": "string",
          "name": "",
          "type": "string"
        }
      ],
      "stateMutability": "view",
      "type": "function"
    },
    {
      "inputs": [
        {
          "internalType": "address",
          "name": "_sender",
          "type": "address"
        }
      ],
      "name": "getOperationsCount",
      "outputs": [
        {
          "internalType": "uint256",
          "name": "",
          "type": "uint256"
        }
      ],
      "stateMutability": "view",
      "type": "function"
    },
    {
      "inputs": [],
      "name": "operationCount",
      "outputs": [
        {
          "internalType": "uint256",
          "name": "",
          "type": "uint256"
        }
      ],
      "stateMutability": "view",
      "type": "function"
    },
    {
      "inputs": [
        {
          "internalType": "address",
          "name": "",
          "type": "address"
        },
        {
          "internalType": "uint256",
          "name": "",
          "type": "uint256"
        }
      ],
      "name": "operations",
      "outputs": [
        {
          "internalType": "address",
          "name": "sender",
          "type": "address"
        },
        {
          "internalType": "address",
          "name": "receiver",
          "type": "address"
        },
        {
          "internalType": "string",
          "name": "senderName",
          "type": "string"
        },
        {
          "internalType": "string",
          "name": "receiverName",
          "type": "string"
        },
        {
          "internalType": "uint256",
          "name": "pickupTime",
          "type": "uint256"
        },
        {
          "internalType": "uint256",
          "name": "deliveryTime",
          "type": "uint256"
        },
        {
          "internalType": "uint256",
          "name": "ref",
          "type": "uint256"
        },
        {
          "internalType": "uint256",
          "name": "price",
          "type": "uint256"
        },
        {
          "internalType": "enum Docusafe.OperationStatus",
          "name": "status",
          "type": "uint8"
        },
        {
          "internalType": "bool",
          "name": "isConfirmed",
          "type": "bool"
        },
        {
          "internalType": "string",
          "name": "ipfsHash",
          "type": "string"
        }
      ],
      "stateMutability": "view",
      "type": "function"
    },
    {
      "inputs": [
        {
          "internalType": "address",
          "name": "_sender",
          "type": "address"
        },
        {
          "internalType": "address",
          "name": "_receiver",
          "type": "address"
        },
        {
          "internalType": "uint256",
          "name": "_index",
          "type": "uint256"
        }
      ],
      "name": "startOperation",
      "outputs": [],
      "stateMutability": "nonpayable",
      "type": "function"
    }
  ],
  "bytecode": "0x608060405234801561001057600080fd5b506000600181905550612691806100286000396000f3fe60806040526004361061007b5760003560e01c8063c0055c271161004e578063c0055c2714610139578063d8f30b7614610162578063fdd3dacd1461019f578063fec7a9be146101e65761007b565b806323d3c1421461008057806327506f53146100ab5780634a64cfe2146100d6578063508886d4146100f2575b600080fd5b34801561008c57600080fd5b5061009561020f565b6040516100a291906117b7565b60405180910390f35b3480156100b757600080fd5b506100c0610215565b6040516100cd9190611b03565b60405180910390f35b6100f060048036038101906100eb9190611cc6565b610555565b005b3480156100fe57600080fd5b5061011960048036038101906101149190611dbc565b610a77565b6040516101309b9a99989796959493929190611e73565b60405180910390f35b34801561014557600080fd5b50610160600480360381019061015b9190611f33565b610eba565b005b34801561016e57600080fd5b5061018960048036038101906101849190611f86565b611116565b60405161019691906117b7565b60405180910390f35b3480156101ab57600080fd5b506101c660048036038101906101c19190611dbc565b611161565b6040516101dd9b9a99989796959493929190611e73565b60405180910390f35b3480156101f257600080fd5b5061020d60048036038101906102089190611f33565b6113ca565b005b60015481565b60606002805480602002602001604051908101604052809291908181526020016000905b8282101561054c57838290600052602060002090600a0201604051806101600160405290816000820160009054906101000a900473ffffffffffffffffffffffffffffffffffffffff1673ffffffffffffffffffffffffffffffffffffffff1673ffffffffffffffffffffffffffffffffffffffff1681526020016001820160009054906101000a900473ffffffffffffffffffffffffffffffffffffffff1673ffffffffffffffffffffffffffffffffffffffff1673ffffffffffffffffffffffffffffffffffffffff16815260200160028201805461031990611fe2565b80601f016020809104026020016040519081016040528092919081815260200182805461034590611fe2565b80156103925780601f1061036757610100808354040283529160200191610392565b820191906000526020600020905b81548152906001019060200180831161037557829003601f168201915b505050505081526020016003820180546103ab90611fe2565b80601f01602080910402602001604051908101604052809291908181526020018280546103d790611fe2565b80156104245780601f106103f957610100808354040283529160200191610424565b820191906000526020600020905b81548152906001019060200180831161040757829003601f168201915b50505050508152602001600482015481526020016005820154815260200160068201548152602001600782015481526020016008820160009054906101000a900460ff16600281111561047a576104796118de565b5b600281111561048c5761048b6118de565b5b81526020016008820160019054906101000a900460ff161515151581526020016009820180546104bb90611fe2565b80601f01602080910402602001604051908101604052809291908181526020018280546104e790611fe2565b80156105345780601f1061050957610100808354040283529160200191610534565b820191906000526020600020905b81548152906001019060200180831161051757829003601f168201915b50505050508152505081526020019060010190610239565b50505050905090565b813414610597576040517f08c379a000000000000000000000000000000000000000000000000000000000815260040161058e90612085565b60405180910390fd5b60006040518061016001604052803373ffffffffffffffffffffffffffffffffffffffff1681526020018973ffffffffffffffffffffffffffffffffffffffff1681526020018881526020018781526020018681526020016000815260200185815260200184815260200160006002811115610616576106156118de565b5b81526020016000151581526020018381525090506000803373ffffffffffffffffffffffffffffffffffffffff1673ffffffffffffffffffffffffffffffffffffffff1681526020019081526020016000208190806001815401808255809150506001900390600052602060002090600a020160009091909190915060008201518160000160006101000a81548173ffffffffffffffffffffffffffffffffffffffff021916908373ffffffffffffffffffffffffffffffffffffffff16021790555060208201518160010160006101000a81548173ffffffffffffffffffffffffffffffffffffffff021916908373ffffffffffffffffffffffffffffffffffffffff16021790555060408201518160020190816107359190612251565b50606082015181600301908161074b9190612251565b506080820151816004015560a0820151816005015560c0820151816006015560e082015181600701556101008201518160080160006101000a81548160ff021916908360028111156107a05761079f6118de565b5b02179055506101208201518160080160016101000a81548160ff0219169083151502179055506101408201518160090190816107dc9190612251565b505050600160008154809291906107f290612352565b919050555060026040518061016001604052803373ffffffffffffffffffffffffffffffffffffffff1681526020018a73ffffffffffffffffffffffffffffffffffffffff1681526020018981526020018881526020018781526020016000815260200186815260200185815260200160006002811115610876576108756118de565b5b81526020016000151581526020018481525090806001815401808255809150506001900390600052602060002090600a020160009091909190915060008201518160000160006101000a81548173ffffffffffffffffffffffffffffffffffffffff021916908373ffffffffffffffffffffffffffffffffffffffff16021790555060208201518160010160006101000a81548173ffffffffffffffffffffffffffffffffffffffff021916908373ffffffffffffffffffffffffffffffffffffffff16021790555060408201518160020190816109549190612251565b50606082015181600301908161096a9190612251565b506080820151816004015560a0820151816005015560c0820151816006015560e082015181600701556101008201518160080160006101000a81548160ff021916908360028111156109bf576109be6118de565b5b02179055506101208201518160080160016101000a81548160ff0219169083151502179055506101408201518160090190816109fb9190612251565b5050508773ffffffffffffffffffffffffffffffffffffffff163373ffffffffffffffffffffffffffffffffffffffff167faf6f67aa09f9787301bd8345d9aea932a3d1e2bbc2fa4d72920b647f08bc758a898989898989604051610a659695949392919061239a565b60405180910390a35050505050505050565b60008060608060008060008060008060606000808e73ffffffffffffffffffffffffffffffffffffffff1673ffffffffffffffffffffffffffffffffffffffff168152602001908152602001600020805490508c10610b0b576040517f08c379a0000000000000000000000000000000000000000000000000000000008152600401610b029061245c565b60405180910390fd5b60008060008f73ffffffffffffffffffffffffffffffffffffffff1673ffffffffffffffffffffffffffffffffffffffff1681526020019081526020016000208d81548110610b5d57610b5c61247c565b5b90600052602060002090600a0201604051806101600160405290816000820160009054906101000a900473ffffffffffffffffffffffffffffffffffffffff1673ffffffffffffffffffffffffffffffffffffffff1673ffffffffffffffffffffffffffffffffffffffff1681526020016001820160009054906101000a900473ffffffffffffffffffffffffffffffffffffffff1673ffffffffffffffffffffffffffffffffffffffff1673ffffffffffffffffffffffffffffffffffffffff168152602001600282018054610c3390611fe2565b80601f0160208091040260200160405190810160405280929190818152602001828054610c5f90611fe2565b8015610cac5780601f10610c8157610100808354040283529160200191610cac565b820191906000526020600020905b815481529060010190602001808311610c8f57829003601f168201915b50505050508152602001600382018054610cc590611fe2565b80601f0160208091040260200160405190810160405280929190818152602001828054610cf190611fe2565b8015610d3e5780601f10610d1357610100808354040283529160200191610d3e565b820191906000526020600020905b815481529060010190602001808311610d2157829003601f168201915b50505050508152602001600482015481526020016005820154815260200160068201548152602001600782015481526020016008820160009054906101000a900460ff166002811115610d9457610d936118de565b5b6002811115610da657610da56118de565b5b81526020016008820160019054906101000a900460ff16151515158152602001600982018054610dd590611fe2565b80601f0160208091040260200160405190810160405280929190818152602001828054610e0190611fe2565b8015610e4e5780601f10610e2357610100808354040283529160200191610e4e565b820191906000526020600020905b815481529060010190602001808311610e3157829003601f168201915b5050505050815250509050806000015181602001518260400151836060015184608001518560a001518660c001518760e001518861010001518961012001518a61014001519b509b509b509b509b509b509b509b509b509b509b50509295989b509295989b9093969950565b60008060008573ffffffffffffffffffffffffffffffffffffffff1673ffffffffffffffffffffffffffffffffffffffff1681526020019081526020016000208281548110610f0c57610f0b61247c565b5b90600052602060002090600a02019050600060028381548110610f3257610f3161247c565b5b90600052602060002090600a020190508373ffffffffffffffffffffffffffffffffffffffff168260010160009054906101000a900473ffffffffffffffffffffffffffffffffffffffff1673ffffffffffffffffffffffffffffffffffffffff1614610fd4576040517f08c379a0000000000000000000000000000000000000000000000000000000008152600401610fcb906124f7565b60405180910390fd5b60006002811115610fe857610fe76118de565b5b8260080160009054906101000a900460ff16600281111561100c5761100b6118de565b5b1461104c576040517f08c379a000000000000000000000000000000000000000000000000000000000815260040161104390612563565b60405180910390fd5b60018260080160006101000a81548160ff02191690836002811115611074576110736118de565b5b021790555060018160080160006101000a81548160ff021916908360028111156110a1576110a06118de565b5b02179055508373ffffffffffffffffffffffffffffffffffffffff168573ffffffffffffffffffffffffffffffffffffffff167fd908b00b21998014bd98f048d2280e2e52b8ce789e0aa6e6b4eb6d61ef7f8bec846004015460405161110791906117b7565b60405180910390a35050505050565b60008060008373ffffffffffffffffffffffffffffffffffffffff1673ffffffffffffffffffffffffffffffffffffffff168152602001908152602001600020805490509050919050565b6000602052816000526040600020818154811061117d57600080fd5b90600052602060002090600a0201600091509150508060000160009054906101000a900473ffffffffffffffffffffffffffffffffffffffff16908060010160009054906101000a900473ffffffffffffffffffffffffffffffffffffffff16908060020180546111ed90611fe2565b80601f016020809104026020016040519081016040528092919081815260200182805461121990611fe2565b80156112665780601f1061123b57610100808354040283529160200191611266565b820191906000526020600020905b81548152906001019060200180831161124957829003601f168201915b50505050509080600301805461127b90611fe2565b80601f01602080910402602001604051908101604052809291908181526020018280546112a790611fe2565b80156112f45780601f106112c9576101008083540402835291602001916112f4565b820191906000526020600020905b8154815290600101906020018083116112d757829003601f168201915b5050505050908060040154908060050154908060060154908060070154908060080160009054906101000a900460ff16908060080160019054906101000a900460ff169080600901805461134790611fe2565b80601f016020809104026020016040519081016040528092919081815260200182805461137390611fe2565b80156113c05780601f10611395576101008083540402835291602001916113c0565b820191906000526020600020905b8154815290600101906020018083116113a357829003601f168201915b505050505090508b565b60008060008573ffffffffffffffffffffffffffffffffffffffff1673ffffffffffffffffffffffffffffffffffffffff168152602001908152602001600020828154811061141c5761141b61247c565b5b90600052602060002090600a020190506000600283815481106114425761144161247c565b5b90600052602060002090600a020190508373ffffffffffffffffffffffffffffffffffffffff168260010160009054906101000a900473ffffffffffffffffffffffffffffffffffffffff1673ffffffffffffffffffffffffffffffffffffffff16146114e4576040517f08c379a00000000000000000000000000000000000000000000000000000000081526004016114db906124f7565b60405180910390fd5b600160028111156114f8576114f76118de565b5b8260080160009054906101000a900460ff16600281111561151c5761151b6118de565b5b1461155c576040517f08c379a0000000000000000000000000000000000000000000000000000000008152600401611553906125cf565b60405180910390fd5b8160080160019054906101000a900460ff16156115ae576040517f08c379a00000000000000000000000000000000000000000000000000000000081526004016115a59061263b565b60405180910390fd5b60028260080160006101000a81548160ff021916908360028111156115d6576115d56118de565b5b021790555060028160080160006101000a81548160ff02191690836002811115611603576116026118de565b5b02179055504281600501819055504282600501819055506000826007015490508260000160009054906101000a900473ffffffffffffffffffffffffffffffffffffffff1673ffffffffffffffffffffffffffffffffffffffff166108fc829081150290604051600060405180830381858888f1935050505015801561168d573d6000803e3d6000fd5b5060018360080160016101000a81548160ff02191690831515021790555060018260080160016101000a81548160ff0219169083151502179055508473ffffffffffffffffffffffffffffffffffffffff168673ffffffffffffffffffffffffffffffffffffffff167f534e66af8a74cf9bdc698d3a4481bbadb47b7b97c779041ecba88db584c4384e856005015460405161172991906117b7565b60405180910390a38473ffffffffffffffffffffffffffffffffffffffff168673ffffffffffffffffffffffffffffffffffffffff167fa45a9f67746ea8b5edf6ccb2f6a99f0201d11f50467e4a74b3db1894e829b1388360405161178e91906117b7565b60405180910390a3505050505050565b6000819050919050565b6117b18161179e565b82525050565b60006020820190506117cc60008301846117a8565b92915050565b600081519050919050565b600082825260208201905092915050565b6000819050602082019050919050565b600073ffffffffffffffffffffffffffffffffffffffff82169050919050565b6000611829826117fe565b9050919050565b6118398161181e565b82525050565b600081519050919050565b600082825260208201905092915050565b60005b8381101561187957808201518184015260208101905061185e565b60008484015250505050565b6000601f19601f8301169050919050565b60006118a18261183f565b6118ab818561184a565b93506118bb81856020860161185b565b6118c481611885565b840191505092915050565b6118d88161179e565b82525050565b7f4e487b7100000000000000000000000000000000000000000000000000000000600052602160045260246000fd5b6003811061191e5761191d6118de565b5b50565b600081905061192f8261190d565b919050565b600061193f82611921565b9050919050565b61194f81611934565b82525050565b60008115159050919050565b61196a81611955565b82525050565b6000610160830160008301516119896000860182611830565b50602083015161199c6020860182611830565b50604083015184820360408601526119b48282611896565b915050606083015184820360608601526119ce8282611896565b91505060808301516119e360808601826118cf565b5060a08301516119f660a08601826118cf565b5060c0830151611a0960c08601826118cf565b5060e0830151611a1c60e08601826118cf565b50610100830151611a31610100860182611946565b50610120830151611a46610120860182611961565b50610140830151848203610140860152611a608282611896565b9150508091505092915050565b6000611a798383611970565b905092915050565b6000602082019050919050565b6000611a99826117d2565b611aa381856117dd565b935083602082028501611ab5856117ee565b8060005b85811015611af15784840389528151611ad28582611a6d565b9450611add83611a81565b925060208a01995050600181019050611ab9565b50829750879550505050505092915050565b60006020820190508181036000830152611b1d8184611a8e565b905092915050565b6000604051905090565b600080fd5b600080fd5b611b428161181e565b8114611b4d57600080fd5b50565b600081359050611b5f81611b39565b92915050565b600080fd5b600080fd5b7f4e487b7100000000000000000000000000000000000000000000000000000000600052604160045260246000fd5b611ba782611885565b810181811067ffffffffffffffff82111715611bc657611bc5611b6f565b5b80604052505050565b6000611bd9611b25565b9050611be58282611b9e565b919050565b600067ffffffffffffffff821115611c0557611c04611b6f565b5b611c0e82611885565b9050602081019050919050565b82818337600083830152505050565b6000611c3d611c3884611bea565b611bcf565b905082815260208101848484011115611c5957611c58611b6a565b5b611c64848285611c1b565b509392505050565b600082601f830112611c8157611c80611b65565b5b8135611c91848260208601611c2a565b91505092915050565b611ca38161179e565b8114611cae57600080fd5b50565b600081359050611cc081611c9a565b92915050565b600080600080600080600060e0888a031215611ce557611ce4611b2f565b5b6000611cf38a828b01611b50565b975050602088013567ffffffffffffffff811115611d1457611d13611b34565b5b611d208a828b01611c6c565b965050604088013567ffffffffffffffff811115611d4157611d40611b34565b5b611d4d8a828b01611c6c565b9550506060611d5e8a828b01611cb1565b9450506080611d6f8a828b01611cb1565b93505060a0611d808a828b01611cb1565b92505060c088013567ffffffffffffffff811115611da157611da0611b34565b5b611dad8a828b01611c6c565b91505092959891949750929550565b60008060408385031215611dd357611dd2611b2f565b5b6000611de185828601611b50565b9250506020611df285828601611cb1565b9150509250929050565b611e058161181e565b82525050565b600082825260208201905092915050565b6000611e278261183f565b611e318185611e0b565b9350611e4181856020860161185b565b611e4a81611885565b840191505092915050565b611e5e81611934565b82525050565b611e6d81611955565b82525050565b600061016082019050611e89600083018e611dfc565b611e96602083018d611dfc565b8181036040830152611ea8818c611e1c565b90508181036060830152611ebc818b611e1c565b9050611ecb608083018a6117a8565b611ed860a08301896117a8565b611ee560c08301886117a8565b611ef260e08301876117a8565b611f00610100830186611e55565b611f0e610120830185611e64565b818103610140830152611f218184611e1c565b90509c9b505050505050505050505050565b600080600060608486031215611f4c57611f4b611b2f565b5b6000611f5a86828701611b50565b9350506020611f6b86828701611b50565b9250506040611f7c86828701611cb1565b9150509250925092565b600060208284031215611f9c57611f9b611b2f565b5b6000611faa84828501611b50565b91505092915050565b7f4e487b7100000000000000000000000000000000000000000000000000000000600052602260045260246000fd5b60006002820490506001821680611ffa57607f821691505b60208210810361200d5761200c611fb3565b5b50919050565b7f5061796d656e7420616d6f756e74206d757374206d617463682074686520707260008201527f6963652e00000000000000000000000000000000000000000000000000000000602082015250565b600061206f602483611e0b565b915061207a82612013565b604082019050919050565b6000602082019050818103600083015261209e81612062565b9050919050565b60008190508160005260206000209050919050565b60006020601f8301049050919050565b600082821b905092915050565b6000600883026121077fffffffffffffffffffffffffffffffffffffffffffffffffffffffffffffffff826120ca565b61211186836120ca565b95508019841693508086168417925050509392505050565b6000819050919050565b600061214e6121496121448461179e565b612129565b61179e565b9050919050565b6000819050919050565b61216883612133565b61217c61217482612155565b8484546120d7565b825550505050565b600090565b612191612184565b61219c81848461215f565b505050565b5b818110156121c0576121b5600082612189565b6001810190506121a2565b5050565b601f821115612205576121d6816120a5565b6121df846120ba565b810160208510156121ee578190505b6122026121fa856120ba565b8301826121a1565b50505b505050565b600082821c905092915050565b60006122286000198460080261220a565b1980831691505092915050565b60006122418383612217565b9150826002028217905092915050565b61225a8261183f565b67ffffffffffffffff81111561227357612272611b6f565b5b61227d8254611fe2565b6122888282856121c4565b600060209050601f8311600181146122bb57600084156122a9578287015190505b6122b38582612235565b86555061231b565b601f1984166122c9866120a5565b60005b828110156122f1578489015182556001820191506020850194506020810190506122cc565b8683101561230e578489015161230a601f891682612217565b8355505b6001600288020188555050505b505050505050565b7f4e487b7100000000000000000000000000000000000000000000000000000000600052601160045260246000fd5b600061235d8261179e565b91507fffffffffffffffffffffffffffffffffffffffffffffffffffffffffffffffff820361238f5761238e612323565b5b600182019050919050565b600060c08201905081810360008301526123b48189611e1c565b905081810360208301526123c88188611e1c565b90506123d760408301876117a8565b6123e460608301866117a8565b6123f160808301856117a8565b81810360a08301526124038184611e1c565b9050979650505050505050565b7f496e76616c696420696e6465782e000000000000000000000000000000000000600082015250565b6000612446600e83611e0b565b915061245182612410565b602082019050919050565b6000602082019050818103600083015261247581612439565b9050919050565b7f4e487b7100000000000000000000000000000000000000000000000000000000600052603260045260246000fd5b7f496e76616c69642072656365697665722e000000000000000000000000000000600082015250565b60006124e1601183611e0b565b91506124ec826124ab565b602082019050919050565b60006020820190508181036000830152612510816124d4565b9050919050565b7f4f7065726174696f6e20616c726561647920696e207472616e7369742e000000600082015250565b600061254d601d83611e0b565b915061255882612517565b602082019050919050565b6000602082019050818103600083015261257c81612540565b9050919050565b7f4f7065726174696f6e206e6f7420696e207472616e7369742e00000000000000600082015250565b60006125b9601983611e0b565b91506125c482612583565b602082019050919050565b600060208201905081810360008301526125e8816125ac565b9050919050565b7f4f7065726174696f6e20616c726561647920706169642e000000000000000000600082015250565b6000612625601783611e0b565b9150612630826125ef565b602082019050919050565b6000602082019050818103600083015261265481612618565b905091905056fea264697066735822122005d54484b505cdae56567b605fc7d8bab30de7370d577a3153a1c4983d19c54464736f6c63430008120033",
  "linkReferences": {},
  "deployedLinkReferences": {}
}