{
  "_format": "hh-sol-artifact-1",
  "contractName": "Docusafe",
  "sourceName": "contracts/Docusafe.sol",
  "abi": [
    {
      "inputs": [],
      "stateMutability": "nonpayable",
      "type": "constructor"
    },
    {
      "anonymous": false,
      "inputs": [
        {
          "indexed": true,
          "internalType": "address",
          "name": "sender",
          "type": "address"
        },
        {
          "indexed": true,
          "internalType": "address",
          "name": "receiver",
          "type": "address"
        },
        {
          "indexed": false,
          "internalType": "uint256",
          "name": "amount",
          "type": "uint256"
        }
      ],
      "name": "OperationConfirmed",
      "type": "event"
    },
    {
      "anonymous": false,
      "inputs": [
        {
          "indexed": true,
          "internalType": "address",
          "name": "sender",
          "type": "address"
        },
        {
          "indexed": true,
          "internalType": "address",
          "name": "receiver",
          "type": "address"
        },
        {
          "indexed": false,
          "internalType": "uint256",
          "name": "pickupTime",
          "type": "uint256"
        },
        {
          "indexed": false,
          "internalType": "uint256",
          "name": "distance",
          "type": "uint256"
        },
        {
          "indexed": false,
          "internalType": "uint256",
          "name": "price",
          "type": "uint256"
        },
        {
          "indexed": false,
          "internalType": "string",
          "name": "metadataURI",
          "type": "string"
        }
      ],
      "name": "OperationCreated",
      "type": "event"
    },
    {
      "anonymous": false,
      "inputs": [
        {
          "indexed": true,
          "internalType": "address",
          "name": "sender",
          "type": "address"
        },
        {
          "indexed": true,
          "internalType": "address",
          "name": "receiver",
          "type": "address"
        },
        {
          "indexed": false,
          "internalType": "uint256",
          "name": "deliveryTime",
          "type": "uint256"
        }
      ],
      "name": "OperationDelivered",
      "type": "event"
    },
    {
      "anonymous": false,
      "inputs": [
        {
          "indexed": true,
          "internalType": "address",
          "name": "sender",
          "type": "address"
        },
        {
          "indexed": true,
          "internalType": "address",
          "name": "receiver",
          "type": "address"
        },
        {
          "indexed": false,
          "internalType": "uint256",
          "name": "pickupTime",
          "type": "uint256"
        }
      ],
      "name": "OperationInTransit",
      "type": "event"
    },
    {
      "inputs": [
        {
          "internalType": "address",
          "name": "_sender",
          "type": "address"
        },
        {
          "internalType": "address",
          "name": "_receiver",
          "type": "address"
        },
        {
          "internalType": "uint256",
          "name": "_index",
          "type": "uint256"
        }
      ],
      "name": "completeOperation",
      "outputs": [],
      "stateMutability": "nonpayable",
      "type": "function"
    },
    {
      "inputs": [
        {
          "internalType": "address",
          "name": "_receiver",
          "type": "address"
        },
        {
          "internalType": "uint256",
          "name": "_pickupTime",
          "type": "uint256"
        },
        {
          "internalType": "uint256",
          "name": "_distance",
          "type": "uint256"
        },
        {
          "internalType": "uint256",
          "name": "_price",
          "type": "uint256"
        },
        {
          "internalType": "string",
          "name": "_metadataURI",
          "type": "string"
        }
      ],
      "name": "createOperation",
      "outputs": [],
      "stateMutability": "payable",
      "type": "function"
    },
    {
      "inputs": [],
      "name": "getAllTransactions",
      "outputs": [
        {
          "components": [
            {
              "internalType": "address",
              "name": "sender",
              "type": "address"
            },
            {
              "internalType": "address",
              "name": "receiver",
              "type": "address"
            },
            {
              "internalType": "uint256",
              "name": "pickupTime",
              "type": "uint256"
            },
            {
              "internalType": "uint256",
              "name": "deliveryTime",
              "type": "uint256"
            },
            {
              "internalType": "uint256",
              "name": "distance",
              "type": "uint256"
            },
            {
              "internalType": "uint256",
              "name": "price",
              "type": "uint256"
            },
            {
              "internalType": "enum Docusafe.OperationStatus",
              "name": "status",
              "type": "uint8"
            },
            {
              "internalType": "bool",
              "name": "isConfirmed",
              "type": "bool"
            },
            {
              "internalType": "string",
              "name": "metadataURI",
              "type": "string"
            }
          ],
          "internalType": "struct Docusafe.TypeOperation[]",
          "name": "",
          "type": "tuple[]"
        }
      ],
      "stateMutability": "view",
      "type": "function"
    },
    {
      "inputs": [
        {
          "internalType": "address",
          "name": "_sender",
          "type": "address"
        },
        {
          "internalType": "uint256",
          "name": "_index",
          "type": "uint256"
        }
      ],
      "name": "getOperation",
      "outputs": [
        {
          "internalType": "address",
          "name": "",
          "type": "address"
        },
        {
          "internalType": "address",
          "name": "",
          "type": "address"
        },
        {
          "internalType": "uint256",
          "name": "",
          "type": "uint256"
        },
        {
          "internalType": "uint256",
          "name": "",
          "type": "uint256"
        },
        {
          "internalType": "uint256",
          "name": "",
          "type": "uint256"
        },
        {
          "internalType": "uint256",
          "name": "",
          "type": "uint256"
        },
        {
          "internalType": "enum Docusafe.OperationStatus",
          "name": "",
          "type": "uint8"
        },
        {
          "internalType": "bool",
          "name": "",
          "type": "bool"
        },
        {
          "internalType": "string",
          "name": "",
          "type": "string"
        }
      ],
      "stateMutability": "view",
      "type": "function"
    },
    {
      "inputs": [
        {
          "internalType": "address",
          "name": "_sender",
          "type": "address"
        }
      ],
      "name": "getOperationsCount",
      "outputs": [
        {
          "internalType": "uint256",
          "name": "",
          "type": "uint256"
        }
      ],
      "stateMutability": "view",
      "type": "function"
    },
    {
      "inputs": [],
      "name": "operationCount",
      "outputs": [
        {
          "internalType": "uint256",
          "name": "",
          "type": "uint256"
        }
      ],
      "stateMutability": "view",
      "type": "function"
    },
    {
      "inputs": [
        {
          "internalType": "address",
          "name": "",
          "type": "address"
        },
        {
          "internalType": "uint256",
          "name": "",
          "type": "uint256"
        }
      ],
      "name": "operations",
      "outputs": [
        {
          "internalType": "address",
          "name": "sender",
          "type": "address"
        },
        {
          "internalType": "address",
          "name": "receiver",
          "type": "address"
        },
        {
          "internalType": "uint256",
          "name": "pickupTime",
          "type": "uint256"
        },
        {
          "internalType": "uint256",
          "name": "deliveryTime",
          "type": "uint256"
        },
        {
          "internalType": "uint256",
          "name": "distance",
          "type": "uint256"
        },
        {
          "internalType": "uint256",
          "name": "price",
          "type": "uint256"
        },
        {
          "internalType": "enum Docusafe.OperationStatus",
          "name": "status",
          "type": "uint8"
        },
        {
          "internalType": "bool",
          "name": "isConfirmed",
          "type": "bool"
        },
        {
          "internalType": "string",
          "name": "metadataURI",
          "type": "string"
        }
      ],
      "stateMutability": "view",
      "type": "function"
    },
    {
      "inputs": [
        {
          "internalType": "address",
          "name": "_sender",
          "type": "address"
        },
        {
          "internalType": "address",
          "name": "_receiver",
          "type": "address"
        },
        {
          "internalType": "uint256",
          "name": "_index",
          "type": "uint256"
        }
      ],
      "name": "startOperation",
      "outputs": [],
      "stateMutability": "nonpayable",
      "type": "function"
    }
  ],
  "bytecode": "0x608060405234801561001057600080fd5b5060006001819055506120bd806100286000396000f3fe60806040526004361061007b5760003560e01c8063c0055c271161004e578063c0055c2714610137578063d8f30b7614610160578063fdd3dacd1461019d578063fec7a9be146101e25761007b565b806323d3c1421461008057806327506f53146100ab578063508886d4146100d6578063a25a87a81461011b575b600080fd5b34801561008c57600080fd5b5061009561020b565b6040516100a2919061133c565b60405180910390f35b3480156100b757600080fd5b506100c0610211565b6040516100cd9190611650565b60405180910390f35b3480156100e257600080fd5b506100fd60048036038101906100f891906116de565b61042d565b60405161011299989796959493929190611795565b60405180910390f35b6101356004803603810190610130919061195e565b6106b3565b005b34801561014357600080fd5b5061015e600480360381019061015991906119f5565b610b5b565b005b34801561016c57600080fd5b5061018760048036038101906101829190611a48565b610db7565b604051610194919061133c565b60405180910390f35b3480156101a957600080fd5b506101c460048036038101906101bf91906116de565b610e02565b6040516101d999989796959493929190611795565b60405180910390f35b3480156101ee57600080fd5b50610209600480360381019061020491906119f5565b610f4f565b005b60015481565b60606002805480602002602001604051908101604052809291908181526020016000905b828210156104245783829060005260206000209060080201604051806101200160405290816000820160009054906101000a900473ffffffffffffffffffffffffffffffffffffffff1673ffffffffffffffffffffffffffffffffffffffff1673ffffffffffffffffffffffffffffffffffffffff1681526020016001820160009054906101000a900473ffffffffffffffffffffffffffffffffffffffff1673ffffffffffffffffffffffffffffffffffffffff1673ffffffffffffffffffffffffffffffffffffffff168152602001600282015481526020016003820154815260200160048201548152602001600582015481526020016006820160009054906101000a900460ff166002811115610352576103516113d3565b5b6002811115610364576103636113d3565b5b81526020016006820160019054906101000a900460ff1615151515815260200160078201805461039390611aa4565b80601f01602080910402602001604051908101604052809291908181526020018280546103bf90611aa4565b801561040c5780601f106103e15761010080835404028352916020019161040c565b820191906000526020600020905b8154815290600101906020018083116103ef57829003601f168201915b50505050508152505081526020019060010190610235565b50505050905090565b600080600080600080600080606060008060008d73ffffffffffffffffffffffffffffffffffffffff1673ffffffffffffffffffffffffffffffffffffffff1681526020019081526020016000208b8154811061048d5761048c611ad5565b5b9060005260206000209060080201604051806101200160405290816000820160009054906101000a900473ffffffffffffffffffffffffffffffffffffffff1673ffffffffffffffffffffffffffffffffffffffff1673ffffffffffffffffffffffffffffffffffffffff1681526020016001820160009054906101000a900473ffffffffffffffffffffffffffffffffffffffff1673ffffffffffffffffffffffffffffffffffffffff1673ffffffffffffffffffffffffffffffffffffffff168152602001600282015481526020016003820154815260200160048201548152602001600582015481526020016006820160009054906101000a900460ff1660028111156105a05761059f6113d3565b5b60028111156105b2576105b16113d3565b5b81526020016006820160019054906101000a900460ff161515151581526020016007820180546105e190611aa4565b80601f016020809104026020016040519081016040528092919081815260200182805461060d90611aa4565b801561065a5780601f1061062f5761010080835404028352916020019161065a565b820191906000526020600020905b81548152906001019060200180831161063d57829003601f168201915b5050505050815250509050806000015181602001518260400151836060015184608001518560a001518660c001518760e00151886101000151995099509950995099509950995099509950509295985092959850929598565b8134146106f5576040517f08c379a00000000000000000000000000000000000000000000000000000000081526004016106ec90611b76565b60405180910390fd5b60006040518061012001604052803373ffffffffffffffffffffffffffffffffffffffff1681526020018773ffffffffffffffffffffffffffffffffffffffff1681526020018681526020016000815260200185815260200184815260200160006002811115610768576107676113d3565b5b81526020016000151581526020018381525090506000803373ffffffffffffffffffffffffffffffffffffffff1673ffffffffffffffffffffffffffffffffffffffff16815260200190815260200160002081908060018154018082558091505060019003906000526020600020906008020160009091909190915060008201518160000160006101000a81548173ffffffffffffffffffffffffffffffffffffffff021916908373ffffffffffffffffffffffffffffffffffffffff16021790555060208201518160010160006101000a81548173ffffffffffffffffffffffffffffffffffffffff021916908373ffffffffffffffffffffffffffffffffffffffff16021790555060408201518160020155606082015181600301556080820151816004015560a0820151816005015560c08201518160060160006101000a81548160ff021916908360028111156108c5576108c46113d3565b5b021790555060e08201518160060160016101000a81548160ff0219169083151502179055506101008201518160070190816109009190611d42565b5050506001600081548092919061091690611e43565b919050555060026040518061012001604052803373ffffffffffffffffffffffffffffffffffffffff1681526020018873ffffffffffffffffffffffffffffffffffffffff168152602001878152602001600081526020018681526020018581526020016000600281111561098e5761098d6113d3565b5b815260200160001515815260200184815250908060018154018082558091505060019003906000526020600020906008020160009091909190915060008201518160000160006101000a81548173ffffffffffffffffffffffffffffffffffffffff021916908373ffffffffffffffffffffffffffffffffffffffff16021790555060208201518160010160006101000a81548173ffffffffffffffffffffffffffffffffffffffff021916908373ffffffffffffffffffffffffffffffffffffffff16021790555060408201518160020155606082015181600301556080820151816004015560a0820151816005015560c08201518160060160006101000a81548160ff02191690836002811115610aaa57610aa96113d3565b5b021790555060e08201518160060160016101000a81548160ff021916908315150217905550610100820151816007019081610ae59190611d42565b5050508573ffffffffffffffffffffffffffffffffffffffff163373ffffffffffffffffffffffffffffffffffffffff167f182f3c9a2dfab7b3755cbce553abe5eb80eecc924db4517080643436957d0c7d87878787604051610b4b9493929190611e8b565b60405180910390a3505050505050565b60008060008573ffffffffffffffffffffffffffffffffffffffff1673ffffffffffffffffffffffffffffffffffffffff1681526020019081526020016000208281548110610bad57610bac611ad5565b5b90600052602060002090600802019050600060028381548110610bd357610bd2611ad5565b5b906000526020600020906008020190508373ffffffffffffffffffffffffffffffffffffffff168260010160009054906101000a900473ffffffffffffffffffffffffffffffffffffffff1673ffffffffffffffffffffffffffffffffffffffff1614610c75576040517f08c379a0000000000000000000000000000000000000000000000000000000008152600401610c6c90611f23565b60405180910390fd5b60006002811115610c8957610c886113d3565b5b8260060160009054906101000a900460ff166002811115610cad57610cac6113d3565b5b14610ced576040517f08c379a0000000000000000000000000000000000000000000000000000000008152600401610ce490611f8f565b60405180910390fd5b60018260060160006101000a81548160ff02191690836002811115610d1557610d146113d3565b5b021790555060018160060160006101000a81548160ff02191690836002811115610d4257610d416113d3565b5b02179055508373ffffffffffffffffffffffffffffffffffffffff168573ffffffffffffffffffffffffffffffffffffffff167fd908b00b21998014bd98f048d2280e2e52b8ce789e0aa6e6b4eb6d61ef7f8bec8460020154604051610da8919061133c565b60405180910390a35050505050565b60008060008373ffffffffffffffffffffffffffffffffffffffff1673ffffffffffffffffffffffffffffffffffffffff168152602001908152602001600020805490509050919050565b60006020528160005260406000208181548110610e1e57600080fd5b9060005260206000209060080201600091509150508060000160009054906101000a900473ffffffffffffffffffffffffffffffffffffffff16908060010160009054906101000a900473ffffffffffffffffffffffffffffffffffffffff16908060020154908060030154908060040154908060050154908060060160009054906101000a900460ff16908060060160019054906101000a900460ff1690806007018054610ecc90611aa4565b80601f0160208091040260200160405190810160405280929190818152602001828054610ef890611aa4565b8015610f455780601f10610f1a57610100808354040283529160200191610f45565b820191906000526020600020905b815481529060010190602001808311610f2857829003601f168201915b5050505050905089565b60008060008573ffffffffffffffffffffffffffffffffffffffff1673ffffffffffffffffffffffffffffffffffffffff1681526020019081526020016000208281548110610fa157610fa0611ad5565b5b90600052602060002090600802019050600060028381548110610fc757610fc6611ad5565b5b906000526020600020906008020190508373ffffffffffffffffffffffffffffffffffffffff168260010160009054906101000a900473ffffffffffffffffffffffffffffffffffffffff1673ffffffffffffffffffffffffffffffffffffffff1614611069576040517f08c379a000000000000000000000000000000000000000000000000000000000815260040161106090611f23565b60405180910390fd5b6001600281111561107d5761107c6113d3565b5b8260060160009054906101000a900460ff1660028111156110a1576110a06113d3565b5b146110e1576040517f08c379a00000000000000000000000000000000000000000000000000000000081526004016110d890611ffb565b60405180910390fd5b8160060160019054906101000a900460ff1615611133576040517f08c379a000000000000000000000000000000000000000000000000000000000815260040161112a90612067565b60405180910390fd5b60028260060160006101000a81548160ff0219169083600281111561115b5761115a6113d3565b5b021790555060028160060160006101000a81548160ff02191690836002811115611188576111876113d3565b5b02179055504281600301819055504282600301819055506000826005015490508260000160009054906101000a900473ffffffffffffffffffffffffffffffffffffffff1673ffffffffffffffffffffffffffffffffffffffff166108fc829081150290604051600060405180830381858888f19350505050158015611212573d6000803e3d6000fd5b5060018360060160016101000a81548160ff02191690831515021790555060018260060160016101000a81548160ff0219169083151502179055508473ffffffffffffffffffffffffffffffffffffffff168673ffffffffffffffffffffffffffffffffffffffff167f534e66af8a74cf9bdc698d3a4481bbadb47b7b97c779041ecba88db584c4384e85600301546040516112ae919061133c565b60405180910390a38473ffffffffffffffffffffffffffffffffffffffff168673ffffffffffffffffffffffffffffffffffffffff167fa45a9f67746ea8b5edf6ccb2f6a99f0201d11f50467e4a74b3db1894e829b13883604051611313919061133c565b60405180910390a3505050505050565b6000819050919050565b61133681611323565b82525050565b6000602082019050611351600083018461132d565b92915050565b600081519050919050565b600082825260208201905092915050565b6000819050602082019050919050565b600073ffffffffffffffffffffffffffffffffffffffff82169050919050565b60006113ae82611383565b9050919050565b6113be816113a3565b82525050565b6113cd81611323565b82525050565b7f4e487b7100000000000000000000000000000000000000000000000000000000600052602160045260246000fd5b60038110611413576114126113d3565b5b50565b600081905061142482611402565b919050565b600061143482611416565b9050919050565b61144481611429565b82525050565b60008115159050919050565b61145f8161144a565b82525050565b600081519050919050565b600082825260208201905092915050565b60005b8381101561149f578082015181840152602081019050611484565b60008484015250505050565b6000601f19601f8301169050919050565b60006114c782611465565b6114d18185611470565b93506114e1818560208601611481565b6114ea816114ab565b840191505092915050565b60006101208301600083015161150e60008601826113b5565b50602083015161152160208601826113b5565b50604083015161153460408601826113c4565b50606083015161154760608601826113c4565b50608083015161155a60808601826113c4565b5060a083015161156d60a08601826113c4565b5060c083015161158060c086018261143b565b5060e083015161159360e0860182611456565b506101008301518482036101008601526115ad82826114bc565b9150508091505092915050565b60006115c683836114f5565b905092915050565b6000602082019050919050565b60006115e682611357565b6115f08185611362565b93508360208202850161160285611373565b8060005b8581101561163e578484038952815161161f85826115ba565b945061162a836115ce565b925060208a01995050600181019050611606565b50829750879550505050505092915050565b6000602082019050818103600083015261166a81846115db565b905092915050565b6000604051905090565b600080fd5b600080fd5b61168f816113a3565b811461169a57600080fd5b50565b6000813590506116ac81611686565b92915050565b6116bb81611323565b81146116c657600080fd5b50565b6000813590506116d8816116b2565b92915050565b600080604083850312156116f5576116f461167c565b5b60006117038582860161169d565b9250506020611714858286016116c9565b9150509250929050565b611727816113a3565b82525050565b61173681611429565b82525050565b6117458161144a565b82525050565b600082825260208201905092915050565b600061176782611465565b611771818561174b565b9350611781818560208601611481565b61178a816114ab565b840191505092915050565b6000610120820190506117ab600083018c61171e565b6117b8602083018b61171e565b6117c5604083018a61132d565b6117d2606083018961132d565b6117df608083018861132d565b6117ec60a083018761132d565b6117f960c083018661172d565b61180660e083018561173c565b818103610100830152611819818461175c565b90509a9950505050505050505050565b600080fd5b600080fd5b7f4e487b7100000000000000000000000000000000000000000000000000000000600052604160045260246000fd5b61186b826114ab565b810181811067ffffffffffffffff8211171561188a57611889611833565b5b80604052505050565b600061189d611672565b90506118a98282611862565b919050565b600067ffffffffffffffff8211156118c9576118c8611833565b5b6118d2826114ab565b9050602081019050919050565b82818337600083830152505050565b60006119016118fc846118ae565b611893565b90508281526020810184848401111561191d5761191c61182e565b5b6119288482856118df565b509392505050565b600082601f83011261194557611944611829565b5b81356119558482602086016118ee565b91505092915050565b600080600080600060a0868803121561197a5761197961167c565b5b60006119888882890161169d565b9550506020611999888289016116c9565b94505060406119aa888289016116c9565b93505060606119bb888289016116c9565b925050608086013567ffffffffffffffff8111156119dc576119db611681565b5b6119e888828901611930565b9150509295509295909350565b600080600060608486031215611a0e57611a0d61167c565b5b6000611a1c8682870161169d565b9350506020611a2d8682870161169d565b9250506040611a3e868287016116c9565b9150509250925092565b600060208284031215611a5e57611a5d61167c565b5b6000611a6c8482850161169d565b91505092915050565b7f4e487b7100000000000000000000000000000000000000000000000000000000600052602260045260246000fd5b60006002820490506001821680611abc57607f821691505b602082108103611acf57611ace611a75565b5b50919050565b7f4e487b7100000000000000000000000000000000000000000000000000000000600052603260045260246000fd5b7f5061796d656e7420616d6f756e74206d757374206d617463682074686520707260008201527f6963652e00000000000000000000000000000000000000000000000000000000602082015250565b6000611b6060248361174b565b9150611b6b82611b04565b604082019050919050565b60006020820190508181036000830152611b8f81611b53565b9050919050565b60008190508160005260206000209050919050565b60006020601f8301049050919050565b600082821b905092915050565b600060088302611bf87fffffffffffffffffffffffffffffffffffffffffffffffffffffffffffffffff82611bbb565b611c028683611bbb565b95508019841693508086168417925050509392505050565b6000819050919050565b6000611c3f611c3a611c3584611323565b611c1a565b611323565b9050919050565b6000819050919050565b611c5983611c24565b611c6d611c6582611c46565b848454611bc8565b825550505050565b600090565b611c82611c75565b611c8d818484611c50565b505050565b5b81811015611cb157611ca6600082611c7a565b600181019050611c93565b5050565b601f821115611cf657611cc781611b96565b611cd084611bab565b81016020851015611cdf578190505b611cf3611ceb85611bab565b830182611c92565b50505b505050565b600082821c905092915050565b6000611d1960001984600802611cfb565b1980831691505092915050565b6000611d328383611d08565b9150826002028217905092915050565b611d4b82611465565b67ffffffffffffffff811115611d6457611d63611833565b5b611d6e8254611aa4565b611d79828285611cb5565b600060209050601f831160018114611dac5760008415611d9a578287015190505b611da48582611d26565b865550611e0c565b601f198416611dba86611b96565b60005b82811015611de257848901518255600182019150602085019450602081019050611dbd565b86831015611dff5784890151611dfb601f891682611d08565b8355505b6001600288020188555050505b505050505050565b7f4e487b7100000000000000000000000000000000000000000000000000000000600052601160045260246000fd5b6000611e4e82611323565b91507fffffffffffffffffffffffffffffffffffffffffffffffffffffffffffffffff8203611e8057611e7f611e14565b5b600182019050919050565b6000608082019050611ea0600083018761132d565b611ead602083018661132d565b611eba604083018561132d565b8181036060830152611ecc818461175c565b905095945050505050565b7f496e76616c69642072656365697665722e000000000000000000000000000000600082015250565b6000611f0d60118361174b565b9150611f1882611ed7565b602082019050919050565b60006020820190508181036000830152611f3c81611f00565b9050919050565b7f4f7065726174696f6e20616c726561647920696e207472616e7369742e000000600082015250565b6000611f79601d8361174b565b9150611f8482611f43565b602082019050919050565b60006020820190508181036000830152611fa881611f6c565b9050919050565b7f4f7065726174696f6e206e6f7420696e207472616e7369742e00000000000000600082015250565b6000611fe560198361174b565b9150611ff082611faf565b602082019050919050565b6000602082019050818103600083015261201481611fd8565b9050919050565b7f4f7065726174696f6e20616c726561647920706169642e000000000000000000600082015250565b600061205160178361174b565b915061205c8261201b565b602082019050919050565b6000602082019050818103600083015261208081612044565b905091905056fea264697066735822122012cf561fe2d8834ce0c5daf0e332c3125b636a2fd864df8b7180c12f18d29eb064736f6c63430008120033",
  "linkReferences": {},
  "deployedLinkReferences": {}
}